{
  "_format": "hh-sol-artifact-1",
  "contractName": "FHEVoting",
  "sourceName": "contracts/FHEVoting.sol",
  "abi": [
    {
      "inputs": [],
      "stateMutability": "nonpayable",
      "type": "constructor"
    },
    {
      "anonymous": false,
      "inputs": [
        {
          "indexed": false,
          "internalType": "uint256",
          "name": "totalVotes",
          "type": "uint256"
        }
      ],
      "name": "ResultsRevealed",
      "type": "event"
    },
    {
      "anonymous": false,
      "inputs": [
        {
          "indexed": true,
          "internalType": "address",
          "name": "voter",
          "type": "address"
        }
      ],
      "name": "VoteCast",
      "type": "event"
    },
    {
      "inputs": [
        {
          "internalType": "euint32",
          "name": "encryptedVote",
          "type": "uint256"
        }
      ],
      "name": "castVote",
      "outputs": [],
      "stateMutability": "nonpayable",
      "type": "function"
    },
    {
      "inputs": [],
      "name": "getMyEncryptedVote",
      "outputs": [
        {
          "internalType": "euint32",
          "name": "",
          "type": "uint256"
        }
      ],
      "stateMutability": "view",
      "type": "function"
    },
    {
      "inputs": [],
      "name": "revealResults",
      "outputs": [],
      "stateMutability": "nonpayable",
      "type": "function"
    }
  ],
  "bytecode": "0x6080604052348015600f57600080fd5b50600280546001600160a01b031916331790556105d0806100316000396000f3fe608060405234801561001057600080fd5b50600436106100415760003560e01c8063029fb049146100465780633eb76b9c14610050578063af093cfb14610063575b600080fd5b61004e610085565b005b61004e61005e3660046103d7565b610134565b3360009081526020819052604090205460405190815260200160405180910390f35b6002546001600160a01b031633146100e35760405162461bcd60e51b815260206004820152601d60248201527f4f6e6c79206f776e65722063616e2072657665616c20726573756c7473000000604482015260640160405180910390fd5b60006100f0600154610184565b63ffffffff1690507fdad003ccb029c02aa1b065bb7ecdf9df8b66c4a46dcdb93befeb2b3408a2849a8160405161012991815260200190565b60405180910390a150565b336000908152602081905260409020819055600154610153908261019a565b60015560405133907fb87a61d78bd15221c59b983f6ef032fbde0631e66bfe18d1421fe5a73c16741d90600090a250565b60006101948263800000006101e0565b92915050565b6000826101ae576101ab6000610286565b92505b816101c0576101bd6000610286565b91505b828260006101d6600284846080622df619610295565b9695505050505050565b6000826101f4576101f16000610286565b92505b63ffffffff82168360006102078261031e565b604051637c4697ab60e01b8152909150600090608090637c4697ab906102369060029086908990600401610440565b602060405180830381865afa158015610253573d6000803e3d6000fd5b505050506040513d601f19601f82011682018060405250810190610277919061046c565b9050805b979650505050505050565b60006101948260026000610348565b600060608383886102a58961031e565b6102ae8961031e565b6040518463ffffffff1660e01b81526004016102cc93929190610485565b600060405180830381865afa1580156102e9573d6000803e3d6000fd5b505050506040513d6000823e601f3d908101601f1916820160405261031191908101906104c9565b905061027b816020015190565b60408051602080825281830190925260609160208201818036833750505060208101929092525090565b60006060608063ba19ac2861035c8761031e565b86866040518463ffffffff1660e01b815260040161037c9392919061056b565b600060405180830381865afa158015610399573d6000803e3d6000fd5b505050506040513d6000823e601f3d908101601f191682016040526103c191908101906104c9565b90506103ce816020015190565b95945050505050565b6000602082840312156103e957600080fd5b5035919050565b60005b8381101561040b5781810151838201526020016103f3565b50506000910152565b6000815180845261042c8160208601602086016103f0565b601f01601f19169290920160200192915050565b60ff8416815260606020820152600061045c6060830185610414565b9050826040830152949350505050565b60006020828403121561047e57600080fd5b5051919050565b60ff841681526060602082015260006104a16060830185610414565b82810360408401526101d68185610414565b634e487b7160e01b600052604160045260246000fd5b6000602082840312156104db57600080fd5b815167ffffffffffffffff808211156104f357600080fd5b818401915084601f83011261050757600080fd5b815181811115610519576105196104b3565b604051601f8201601f19908116603f01168101908382118183101715610541576105416104b3565b8160405282815287602084870101111561055a57600080fd5b61027b8360208301602088016103f0565b60608152600061057e6060830186610414565b905060ff841660208301528260030b604083015294935050505056fea26469706673582212203033953079e6ccaee96d4002e2ebae72cb447b568cada1fbf9b1e508643f90bf64736f6c63430008190033",
  "linkReferences": {},
  "deployedLinkReferences": {}
}