{
  "_format": "hh-sol-artifact-1",
  "contractName": "Precompiles",
  "sourceName": "@fhenixprotocol/contracts/FheOS.sol",
  "abi": [
    {
      "inputs": [],
      "name": "Fheos",
      "outputs": [
        {
          "internalType": "address",
          "name": "",
          "type": "address"
        }
      ],
      "stateMutability": "view",
      "type": "function"
    }
  ],
  "bytecode": "0x60916037600b82828239805160001a607314602a57634e487b7160e01b600052600060045260246000fd5b30600052607381538281f3fe730000000000000000000000000000000000000000301460806040526004361060335760003560e01c806313d8d464146038575b600080fd5b603f608081565b6040516001600160a01b03909116815260200160405180910390f3fea264697066735822122057bc55a4404dc0f58a01557f0763c504fff022f70383e9e50f7ec814a702c3cf64736f6c63430008190033",
  "linkReferences": {},
  "deployedLinkReferences": {}
}