{
  "_format": "hh-sol-artifact-1",
  "contractName": "FHE",
  "sourceName": "@fhenixprotocol/contracts/FHE.sol",
  "abi": [
    {
      "inputs": [],
      "name": "NIL16",
      "outputs": [
        {
          "internalType": "euint16",
          "name": "",
          "type": "uint256"
        }
      ],
      "stateMutability": "view",
      "type": "function"
    },
    {
      "inputs": [],
      "name": "NIL32",
      "outputs": [
        {
          "internalType": "euint32",
          "name": "",
          "type": "uint256"
        }
      ],
      "stateMutability": "view",
      "type": "function"
    },
    {
      "inputs": [],
      "name": "NIL8",
      "outputs": [
        {
          "internalType": "euint8",
          "name": "",
          "type": "uint256"
        }
      ],
      "stateMutability": "view",
      "type": "function"
    }
  ],
  "bytecode": "0x609b6037600b82828239805160001a607314602a57634e487b7160e01b600052600060045260246000fd5b30600052607381538281f3fe730000000000000000000000000000000000000000301460806040526004361060475760003560e01c80639e80b51314604c578063acfc53ee14604c578063b1c4854414604c575b600080fd5b6053600081565b60405190815260200160405180910390f3fea2646970667358221220a36a3b2d613c03ef1dfdf64f85439e0066eac784529709f5f3328b8b8e8c650564736f6c63430008190033",
  "linkReferences": {},
  "deployedLinkReferences": {}
}